:03000000020800F3
:0C080000787FE4F6D8FD758108020847F7
:0309370001083084
:0808DB001208E375A006AF0846
:1008E300E4FDFCC3ED9FEC9E5015E4FBFA0BBB004B
:0F08F300010ABA03F8BB9AF50DBD00010C80E4B1
:0109020022D2
:10088C00D2B0D2B1D2B3D2B2E4F5A075A885758836
:10089C000520B01C75A003AF087E001208DB75A004
:1008AC000CAF081208E375A009AF081208E380E149
:1008BC0020B1DE75A009AF087E001208E375A00C0C
:0F08CC00AF081208DB75A003AF081208E380C263
:03000300020903EC
:10090300C0E0C0D0C3E5089430748094F5500674F9
:0A0913003C2508F508D0D0D0E032F2
:0300130002091DC2
:10091D00C0E0C0D0D3E50894147480948040067470
:0A092D00C42508F508D0D0D0E03250
:10080C0002088CE493A3F8E493A34003F68001F26E
:10081C0008DFF48029E493A3F85407240CC8C333ED
:10082C00C4540F4420C8834004F456800146F6DFBC
:10083C00E4800B0102040810204080900937E47E0C
:10084C00019360BCA3FF543F30E509541FFEE493B1
:10085C00A360010ECF54C025E060A840B8E493A378
:10086C00FAE493A3F8E493A3C8C582C8CAC583CAA3
:10087C00F0A3C8C582C8CAC583CADFE9DEE780BE5B
:01093A0000BC
:00000001FF
